:1000000000000120710F0000E10F0000E30F00006D
:10001000E50F0000E70F0000E90F000000000000FE
:10002000000000000000000000000000EB0F0000D6
:10003000ED0F000000000000EF0F0000F10F0000C6
:10004000F30F0000F30F0000F30F0000F30F0000A8
:10005000F30F0000F30F0000F30F0000F30F000098
:10006000F30F0000F30F0000F30F0000F30F000088
:10007000F30F0000F30F0000F30F0000F30F000078
:10008000F30F0000F30F0000F30F0000F30F000068
:10009000F30F0000F30F0000F30F0000F30F000058
:1000A000F30F0000F30F0000F30F0000F30F000048
:1000B000F30F0000F30F000000000000000000003C
:1000C000F30F0000F30F0000F30F0000F30F000028
:1000D000F30F0000F30F0000F30F0000000000001A
:1000E0000000000000000000000000000000000010
:1000F0000000000000000000000000000000000000
:1001000000000000000000000000000000000000EF
:1001100000000000000000000000000000000000DF
:1001200000000000000000000000000000000000CF
:1001300000000000000000000000000000000000BF
:1001400000000000000000000000000000000000AF
:10015000000000000000000000000000000000009F
:10016000000000000000000000000000000000008F
:10017000000000000000000000000000000000007F
:10018000000000000000000000000000000000006F
:10019000000000000000000000000000000000005F
:1001A000000000000000000000000000000000004F
:1001B000000000000000000000000000000000003F
:1001C000000000000000000000000000000000002F
:1001D000000000000000000000000000000000001F
:1001E000000000000000000000000000000000000F
:1001F00000000000000000000000000000000000FF
:100200005468652061766572616765206772616414
:100210006520696E2054544B2564207761732069F2
:100220006E202564207761733A2025630A0D000053
:10023000100000202020202020202020202020200E
:1002400020202020303030303030303030303030EE
:10025000303030303031323334353637383941424E
:1002600043444546000000003031323334353637E0
:10027000383961626364656600000000286E756C41
:100280006C29000043000000504F53495800000003
:100290002E000000002020202020202020202828C0
:1002A0002828282020202020202020202020202036
:1002B0002020202020881010101010101010101076
:1002C00010101010100404040404040404040410A6
:1002D0001010101010104141414141410101010134
:1002E00001010101010101010101010101010101FE
:1002F000101010101010424242424242020202020A
:1003000002020202020202020202020202020202CD
:10031000101010102000000000000000000000007D
:1003200000000000000000000000000000000000CD
:1003300000000000000000000000000000000000BD
:1003400000000000000000000000000000000000AD
:10035000000000000000000000000000000000009D
:10036000000000000000000000000000000000008D
:10037000000000000000000000000000000000007D
:10038000000000000000000000000000000000006D
:05039000000000000068
:080398009000000001000000CC
:1003A0000348044B834202D0034B03B11847704704
:1003B000B4090020B40900200000000005480649E7
:1003C0000B1AD90F01EBA301491002D0034B03B163
:1003D00018477047B4090020B4090020000000004D
:1003E00010B5064C237843B9FFF7DAFF044B13B17D
:1003F0000448AFF300800123237010BDB40900202E
:10040000000000005C43000008B5044B1BB1044928
:100410000448AFF30080BDE80840CFE700000000CB
:10042000B80900205C430000A3F5803A704700BF84
:10043000154B002B08BF114B9D46FFF7F5FF002120
:100440008B460F461148124A121A00F04BFE0C4B15
:10045000002B00D098470B4B002B00D09847002072
:10046000002104000D000B4800F0C4FD00F0F2FD77
:100470002000290000F030F800F0C2FD0000080064
:10048000000000000000000000000120B40900206E
:100490000C0A00202110000080B586B000AFF86083
:1004A000B9607A60BB687B6100233B610AE07B69CD
:1004B0001B78184600F0B4F87B6901337B613B6917
:1004C00001333B613B697A689A42F0D87B681846F1
:1004D0001837BD4680BD000080B584B000AF00F085
:1004E0006DF800F0D7F800F0E5F80023FB60012379
:1004F000BB604FF0A043D3F8103503F40053002B3A
:1005000002D1412000F08CF84FF0A043D3F8103511
:1005100003F48043002B02D1422000F081F800F068
:100520009FF80346002B35D0BB68002B19D0112350
:100530007B6012E04FF0A043D3F8043501217A68C4
:1005400001FA02F211464FF0A0420B43C2F8043503
:100550000023BB607B6801337B607B68142BE9DD83
:1005600018E011233B6012E04FF0A043D3F80C35A4
:1005700001213A6801FA02F211464FF0A0420B4302
:10058000C2F80C350123BB603B6801333B603B681C
:10059000142BE9DD42F21073FB60FB68013BFB604A
:1005A000FB68002BF9D1422340F2E67241F28B0145
:1005B000014800F073FD9CE70002000080B400AF2A
:1005C0004FF0A0430122C3F820274FF0A0430022A0
:1005D000C3F81827104B0622C3F80C250E4B08222F
:1005E000C3F814250C4B4FF0FF32C3F80C250A4B0F
:1005F0004FF0FF32C3F81425074B084AC3F82425EF
:10060000054B0422C3F80025034B01221A6000BFEA
:10061000BD4680BC704700BF00200040005027004E
:1006200080B483B000AF0346FB710C4B01229A608B
:100630000A4AFB79C2F81C3500BF084BD3F81C31BD
:10064000002BFAD0054B0022C3F81C21034B0122DA
:10065000DA6000BF0C37BD4680BC70470020004008
:1006600080B483B000AF0A4BD3F80831002B09D017
:10067000074B0022C3F80821054BD3F81835FB714E
:10068000FB7900E0002318460C37BD4680BC70475C
:100690000020004080B400AF4FF0A0430C22C3F80C
:1006A00034274FF0A0430C22C3F8382700BFBD46C3
:1006B00080BC704780B483B000AF11237B6010E032
:1006C00001227B689A404FF0A043C3F8182501220D
:1006D0007B689A404FF0A043C3F80C257B68013338
:1006E0007B607B68142BEBDD00BF00BF0C37BD4681
:1006F00080BC704780B483B000AF1E4B1B68B3F161
:10070000FF3F0AD11C4B1B68DBB27B601B4B1B6895
:100710001B0903F00F033B6005E0164B1B687B6071
:10072000174B1B683B607B68062B1DD13B68033B66
:10073000042B17D801A252F823F000BF5107000084
:1007400055070000590700005D0700006107000021
:1007500001230AE0012308E0012306E0012304E06D
:10076000012302E0012300E0002318460C37BD46B8
:1007700080BC704730010010E00F00F0E80F00F07F
:100780003401001080B483B000AF184B1B68DBB29B
:100790007B60174B1B681B0903F00F033B607B68F2
:1007A000062B1DD13B68033B042B17D801A252F83E
:1007B00023F000BFC9070000CD070000D1070000EB
:1007C000D5070000D907000001230AE0002308E054
:1007D000002306E0002304E0002302E0002300E001
:1007E000002318460C37BD4680BC7047E00F00F070
:1007F000E80F00F080B483B000AF1E4B1B68B3F16C
:10080000FF3F0AD11C4B1B68DBB27B601B4B1B6894
:100810001B0903F00F033B6005E0164B1B687B6070
:10082000174B1B683B607B68062B1DD13B68033B65
:10083000042B17D801A252F823F000BF5108000082
:1008400055080000590800005D080000610800001C
:1008500001230AE0012308E0012306E0012304E06C
:10086000012302E0012300E0002318460C37BD46B7
:1008700080BC704730010010E00F00F0E80F00F07E
:100880003401001080B483B000AF184B1B68DBB29A
:100890007B60174B1B681B0903F00F033B607B68F1
:1008A000062B1DD13B68033B042B17D801A252F83D
:1008B00023F000BFC9080000CD080000D1080000E7
:1008C000D5080000D908000001230AE0002308E051
:1008D000002306E0002304E0002302E0002300E000
:1008E000002318460C37BD4680BC7047E00F00F06F
:1008F000E80F00F080B483B000AF1E4B1B68B3F16B
:10090000FF3F0AD11C4B1B68DBB27B601B4B1B6893
:100910001B0903F00F033B6005E0164B1B687B606F
:10092000174B1B683B607B68062B1DD13B68033B64
:10093000042B17D801A252F823F000BF5109000080
:1009400055090000590900005D0900006109000017
:1009500001230AE0012308E0012306E0012304E06B
:10096000012302E0012300E0002318460C37BD46B6
:1009700080BC704730010010E00F00F0E80F00F07D
:100980003401001080B483B000AF184B1B68DBB299
:100990007B60174B1B681B0903F00F033B607B68F0
:1009A000062B1DD13B68033B042B17D801A252F83C
:1009B00023F000BFC9090000CD090000D1090000E3
:1009C000D5090000D909000001230AE0002308E04E
:1009D000002306E0002304E0002302E0002300E0FF
:1009E000002318460C37BD4680BC7047E00F00F06E
:1009F000E80F00F080B483B000AF184B1B68DBB287
:100A00007B60174B1B681B0903F00F033B607B687F
:100A1000062B1DD13B68033B042B17D801A252F8CB
:100A200023F000BF390A00003D0A0000410A00001F
:100A3000450A0000490A000001230AE0002308E0FB
:100A4000002306E0002304E0002302E0002300E08E
:100A5000002318460C37BD4680BC7047E00F00F0FD
:100A6000E80F00F080B483B000AF1E4B1B68B3F1F9
:100A7000FF3F0AD11C4B1B68DBB27B601B4B1B6822
:100A80001B0903F00F033B6005E0164B1B687B60FE
:100A9000174B1B683B607B68062B1DD13B68033BF3
:100AA000042B17D801A252F823F000BFC10A00009E
:100AB000C50A0000C90A0000CD0A0000D10A0000E2
:100AC00000230AE0002308E0012306E0012304E0FC
:100AD000012302E0012300E0002318460C37BD4645
:100AE00080BC704730010010E00F00F0E80F00F00C
:100AF0003401001080B483B000AF1E4B1B68B3F10B
:100B0000FF3F0AD11C4B1B68DBB27B601B4B1B6891
:100B10001B0903F00F033B6005E0164B1B687B606D
:100B2000174B1B683B607B68062B1DD13B68033B62
:100B3000042B17D801A252F823F000BF510B00007C
:100B4000550B0000590B00005D0B0000610B00000D
:100B500001230AE0012308E0012306E0012304E069
:100B6000012302E0012300E0002318460C37BD46B4
:100B700080BC704730010010E00F00F0E80F00F07B
:100B80003401001080B483B000AF1E4B1B68B3F17A
:100B9000FF3F0AD11C4B1B68DBB27B601B4B1B6801
:100BA0001B0903F00F033B6005E0164B1B687B60DD
:100BB000174B1B683B607B68062B1DD13B68033BD2
:100BC000042B17D801A252F823F000BFE10B00005C
:100BD000E50B0000E90B0000ED0B0000F10B00003D
:100BE00001230AE0012308E0012306E0012304E0D9
:100BF000012302E0012300E0002318460C37BD4624
:100C000080BC704730010010E00F00F0E80F00F0EA
:100C10003401001080B483B000AF164B1B687B60BA
:100C2000154B1B683B607B68062B1DD13B68033B63
:100C3000042B17D801A252F823F000BF510C00007A
:100C4000550C0000590C00005D0C0000610C000008
:100C500000230AE0002308E0002306E0012304E06B
:100C6000012302E0012300E0002318460C37BD46B3
:100C700080BC7047300100103401001080B483B094
:100C800000AF164B1B687B60154B1B683B607B6895
:100C9000062B1DD13B68033B042B17D801A252F849
:100CA00023F000BFB90C0000BD0C0000C10C000017
:100CB000C50C0000C90C000000230AE0002308E076
:100CC000002306E0002304E0012302E0012300E00A
:100CD000002318460C37BD4680BC70473001001019
:100CE0003401001080B500AFFFF7C8FF0346002BAA
:100CF00007D04FF010234FF08042D3F80832C2F8EB
:100D0000583500BF80BD000080B400AF034B044ADB
:100D10001A6000BFBD4680BC704700BF00000020C5
:100D20000090D00380B500AFFFF7E4FC0346002B32
:100D300006D07F4B1B681B0A7E4A03F01F0313601B
:100D4000FFF720FD0346002B02D07B4B7B4A1A6045
:100D5000FFF750FD0346002B06D0794B1B685B0B59
:100D6000784A03F007031360FFF78CFD0346002B5E
:100D700005D0754BDB68744A23F08073D360FFF7AE
:100D8000B9FD0346002B0ED04FF080430022C3F87C
:100D90000C214FF080430022C3F810214FF0804314
:100DA0000022C3F83825FFF7EDFD0346002B02D0E3
:100DB000664B03221A60FFF71DFE0346002B0BD083
:100DC000634B05221A60634B01221A60624B0022BA
:100DD0001A60624B3F221A60FFF744FE0346002B65
:100DE00076D04FF080535E4AD3F80434C2F82035F1
:100DF0004FF080535A4AD3F80834C2F824354FF0E4
:100E00008053574AD3F80C34C2F828354FF080533A
:100E1000534AD3F81034C2F82C354FF08053504A5F
:100E2000D3F81434C2F830354FF080534C4AD3F81D
:100E30001834C2F834354FF08053494AD3F81C3483
:100E4000C2F840354FF08053454AD3F82034C2F8F9
:100E500044354FF08053424AD3F82434C2F8483521
:100E60004FF080533E4AD3F82834C2F84C354FF047
:100E700080533B4AD3F82C34C2F850354FF080539E
:100E8000374AD3F83034C2F854354FF08053344ADF
:100E9000D3F83434C2F860354FF08053304AD3F879
:100EA0003834C2F864354FF080532D4AD3F83C34BF
:100EB000C2F868354FF08053294AD3F84034C2F85D
:100EC0006C354FF08053264AD3F84434C2F870355D
:100ED000FFF710FE0346002B05D0224B1B68224A69
:100EE00003F04F031360FFF74DFE0346002B0DD0B8
:100EF0004FF08043D3F8003403F00103002B05D0FA
:100F00004FF080436FF00102C3F80024FFF782FE28
:100F10000346002B05D0154B1B68144A43F480632D
:100F20001360FFF7DFFEFFF7EFFE00BF80BD00BFDD
:100F3000240300104035014074C007400DF0ADBAE5
:100F4000440200103C050040F0ED00E0A005004028
:100F50001056004088560040185600401456004075
:100F600000C0004058020010E40E00403C17004052
:100F70000F49104A104B00F010F81049104A114B5D
:100F800000F00BF81049114A114B00F006F8114916
:100F9000114A124B00F001F806E0521A03DD043A40
:100FA00098588850FBDC7047FFF7BCFEFFF740FA0B
:100FB00000000020B4090020A8430000B40900206C
:100FC000B40900205C4D0000B4090020B4090020E1
:100FD0005C4D0000B4090020B40900205C4D000005
:100FE000FEE7FEE7FEE7FEE7FEE7FEE7FEE7FEE7D9
:100FF000FEE7FEE7002301461A46184600F0A8BFA8
:1010000008B50021044600F0D7FF044B1868C36BF5
:1010100003B19847204603F08DF900BF300200006D
:1010200038B50A4C0A4D641BA4100AD004F1804361
:10103000013B05EB8305013C55F804399847002C2A
:10104000F9D1BDE8384003F081B900BF5C4300002E
:101050005843000070B50D4E0D4D761BB61006D0EE
:101060000024013455F8043B9847A642F9D1094EB3
:10107000094D761B03F060F9B61006D00024013448
:1010800055F8043B9847A642F9D170BD444300008F
:10109000444300004C430000444300000FB400B53B
:1010A000074983B004AB086853F8042B81680193A7
:1010B00000F0ACF803B05DF804EB04B0704700BF7B
:1010C000080000200EB400B582B003AB816853F86D
:1010D000042B019300F09AF802B05DF804EB03B022
:1010E000704700BFF0B4860746D0541E002A3CD09B
:1010F000CAB2034602E014F1FF3436D303F8012BE1
:101100009D07F8D1032C29D9CDB245EA05250F2C2E
:1011100045EA054533D9A4F11006360903F1200745
:1011200007EB061703F1100242E9045542E90255A4
:101130001032BA42F8D1721C14F00C0F03EB0212F9
:1011400004F00F0613D0331F23F0030304331344BA
:1011500042F8045B9342FBD106F003042CB1C9B200
:101160001C4403F8011B9C42FBD1F0BC7047344681
:101170001346002CF3D1F8E714460346C2E71A469B
:101180002646E0E72DE9F84F4B6E9C0493462DD59B
:101190009368126843B30E46074602F1080959E9FD
:1011A000025A5FEA9A0815D0043D002401E0A045E8
:1011B0000ED0324655F8041F384601F075F9431C2D
:1011C00004F10104F3D10023CBE90133BDE8F88F2A
:1011D000DBF808302AF0030AA3EB0A03CBF8083047
:1011E00009F10809002BDAD10020ECE701F0D8FA68
:1011F0000023CBE90133BDE8F88F00BF936803B14A
:10120000C0E710B41846536010BC70472DE9F04F8A
:10121000ABB01C468A469046CDE9043018B1836BCA
:10122000002B00F00083BAF90C108AB290040AD4A3
:10123000DAF8643041F4005223F40053AAF80C2089
:10124000CAF8643092B2110740F1CA80DAF810305F
:10125000002B00F0C58002F01A020A2A00F0CE80AE
:1012600000230893CDE90E3302931AAB0D939B46EE
:1012700098F80030002B00F0DF80252B00F01C8553
:10128000454603E0252B00F0C68025466B786C1C94
:10129000002BF7D1B4EB080600F0CE80DDE90E326A
:1012A00001333244072BCBF80080CBF80460CDE942
:1012B0000E3200F3B5800BF1080B029A6B783244C2
:1012C0000292002B00F0B8804FF0000300218DF84F
:1012D0002F306378039108460F4604F101084FF060
:1012E000FF3908F10108A3F12002582A00F29E827A
:1012F000DFE812F0F9009C029C02F4009C029C02C0
:101300009C029C029C029C02E900E4009C02DF001B
:10131000C6009C02C100B200B200B200B200B2002E
:10132000B200B200B200B2009C029C029C029C027D
:101330009C029C029C029C029C029C0228029C0231
:101340009C029C029C029C029C029C029C029C02AD
:101350009C0267009C029C029C029C029C02590019
:101360009C029C0213029C029C029C029C029C0216
:101370009C029C029C029C029C02840157019C02DC
:101380009C029C02520157019C029C0245019C0256
:101390006E0269003F0240019C0220019C025B003A
:1013A0009C029C02010147F01007BA06049B40F121
:1013B0002782073323F00703F3E802450493012350
:1013C000E5E147F0100717F0200300F02282049BAC
:1013D000073323F00703F3E8024504930023D6E123
:1013E0005146059800F04CFD002840F0F484BAF80E
:1013F0000C2002F01A020A2A7FF432AFBAF90E303A
:10140000002BFFF62DAF234642465146059800F0CB
:1014100001FD02901CE0B4EB08063FF455AF3DE738
:10142000002A00F00F840DAA51460598FFF7AAFE86
:1014300048B90DF1680B40E70F9B23B105980DAA41
:101440005146FFF79FFEBAF80C305B0600F1C384EB
:1014500002982BB0BDE8F08FA3F13002002418F8F9
:10146000013B04EB840402EB4404A3F13002092A9B
:10147000F5D9039437E747F0800798F8003030E754
:10148000444614F8013B2A2B00F0AA84A3F1300251
:10149000092AA0464FF000093FF625AF18F8013B96
:1014A00009EB890902EB4909A3F13002092AF5D9B0
:1014B00019E798F8003047F0040712E798F8003071
:1014C00001212B200DE7049A98F8003052F8044BC4
:1014D0000394002CC0F21584049202E747F0010740
:1014E00098F80030FDE698F8003000287FF4F9AE57
:1014F00001212020F5E6002940F05B84BE4A0892D5
:10150000B806049A40F11281073222F00702F2E88D
:1015100002450492FE0740F1998154EA050200F069
:10152000958130228DF8313047F002078DF8302058
:1015300002232CE1049C54F8046B4FF000038DF857
:101540002F30002E00F00784B9F1FF3F00F0DE835A
:101550004A460021304601F073FE002800F019844D
:10156000831B01939DF82F300494009706934FF04E
:101570000009B0E147F0200798F80030B1E698F88C
:1015800000306C2B03BF98F8013047F0200708F1BA
:10159000010847F01007A4E647F0400798F800302C
:1015A0009FE6002940F00184BA06049B40F1D380F5
:1015B000073323F007031946F1E802230491144688
:1015C0001D46002A73F10003C0F249839DF82F30B5
:1015D0000693B9F1FF3F00F0148327F080030093D6
:1015E00054EA050340F00C83B9F1000F40F0CF83BB
:1015F0004FF00009CDF804901AAE6CE1049B012570
:1016000053F8042B8DF840204FF000018DF82F1077
:101610000493019510AE00974FF00009009BDDE99F
:101620000E2C13F002030693009B18BF0235501CCA
:1016300013F084030146079304D1039B5C1B002C29
:1016400000F325829DF82F400BF108007CB10CF1CE
:10165000010C0DF12F0401220729CDE90E1CCBE965
:10166000004200F3F4810A46834601310830069BAC
:10167000E3B10CF1020C0CAA02230729CDE90E1CE0
:10168000CBE9002340F3FD81BCF1000F00F0FD82A7
:101690000DAA51460598FFF775FD00287FF4D3AEDB
:1016A000DDE90E2C1CA8511C0DF1680B079B802B4B
:1016B00000F01C81019BA9EB0307002F00F373814D
:1016C000019A0E911346634407290F93CBE90062F8
:1016D0000CDD002B00F024820DAA51460598FFF77F
:1016E00051FD00287FF4AFAE0F9B1AA8009A520755
:1016F00004D5039A541B002C00F31B82DDE9022160
:10170000A942ACBF521852190292002B40F09181AD
:1017100000230E930DF1680BAAE5002940F05283D7
:10172000364A0892B806049A3FF5EEAE52F8044BDA
:101730000492F90600F19C827A0640F19982A4B2E3
:101740000025E7E6002940F02D8347F01007BA0690
:10175000049B3FF52DAF53F8044B0493FE0600F1B4
:1017600076827D0640F1738224B2E51722462B462D
:1017700027E7049B53F8044B049347F630021E4BB3
:101780000893ADF8302047F00207002502234FF000
:1017900000028DF82F2000220692B9F1FF3F58D0A9
:1017A00027F08002009254EA050251D1B9F1000FEE
:1017B00040F00A82002B7FF41BAF17F00103019366
:1017C00000F07D8230238DF867300DF1670682E0EE
:1017D000002940F0F282049ABC0652F8043B0492BD
:1017E00000F18282F80600F1AA82790640F1A78210
:1017F000029A1A803CE500BF680200005402000013
:1018000053F8044B0493FE0640F16882002501233F
:10181000BDE7049A52F8044B049217F0100200F04E
:1018200056820025B3E700F0CBFDFCE4002940F030
:10183000AB82002B3FF400AE01258DF840304FF015
:1018400000038DF82F30019510AEE4E602239EE7E9
:10185000009F012B00F0D581022B00F0BC811AA95A
:1018600000E03146E20842EA4572E80804F0070366
:1018700005461446303354EA050201F8013C01F1F3
:10188000FF36EED1F80722D5302B20D03023023995
:1018900006F8013C1AAB5B1A009701930E461AE05A
:1018A0001AAE01E004460D460A22002320462946CE
:1018B00002F090FB303206F8012D00230A22204668
:1018C000294602F087FB002D08BF0A2CEAD21AAB8A
:1018D0009B1B00970193019B4B45B8BF4B461D4690
:1018E000069B002B3FF49AAE013597E6039B5F1BE6
:1018F000002F7FF7DFAE102FBF4C40F369826346A5
:10190000DC46AB462546059C06E0901C0CF1080C15
:101910000A46103F102F1EDD511C103310200729DE
:101920000F93CCF80050CCF804000E91EDDD0DAA19
:1019300051462046002B00F08580FFF723FC00284D
:101940007FF481ADDDE90E23103F102F02F101007D
:101950000DF1680CE0DC2C465D46E3469C460BF13D
:101960000803BC440728CDF83CC0CBE900470E90E3
:1019700040F3A781BCF1000F00F0F7810DAA51469A
:101980000598FFF7FFFB00287FF45DAD019BDDE9C3
:101990000E2CA9EB0307002F02F101011CA80DF189
:1019A000680B7FF78DAE102F934C40F3DC816346BC
:1019B0004FF01009DC46AB462546059C06E0911C1D
:1019C0000CF1080C0246103F102F19DD501C10338B
:1019D00007280F93CCE900590E90F0DD0DAA51466F
:1019E00020460BB3FFF7CEFB00287FF42CADDDE9DA
:1019F0000E23103F102F02F101010DF1680CE5DC00
:101A00002C465D46E3469C460BF10803BC4407297F
:101A1000CDF83CC0CBE900470E9100F300810131C5
:101A200003F108009B464BE601211A460DF1680CB4
:101A3000C9E70DAA51460598FFF7A4FB00283FF41B
:101A400067AE00E501201A460DF1680C61E7BCF1B4
:101A5000000F00F00F810DAA51460598FFF792FB89
:101A600000287FF4F0ACDDE90E2C1CA8511C0DF110
:101A7000680BFCE502230CAACDE91A239C461CA89E
:101A8000012183460A46511C0BF108000EE6102C7A
:101A90005A4F40F39581099659461023C34666462E
:101AA000A846059D07E002F1020E08310246103CEF
:101AB000102C1ADD501C103607280F96C1E9007350
:101AC0000E90F0DD0DAA5146284626B3FFF75AFBCB
:101AD00000287FF4B8ACDDE90E26103C102C02F192
:101AE000010E1AA94FF01003E4DCB446099E4546E6
:101AF000D8468B46A444BEF1070FCDF83CC0CBE9D5
:101B00000074CDF838E000F3C6800BF1080B0EF13D
:101B10000101724696E532464FF0010E1AA9C6E75A
:101B2000009A0E93510747D5039A541B002C43DDAE
:101B30001AA8102C0E99314F40F347811026DDF87A
:101B4000149006E001F1020C08301146103C102CF4
:101B500018DD4A1C1033072A0F93C0E900760E9255
:101B6000F0DD0DAA514648460BB3FFF70BFB0028EA
:101B70007FF469ACDDE90E13103C102C01F1010C6F
:101B80001AA8E6DC2344BCF1070F0F93C0E90074E8
:101B9000CDF838C07FF7B2AD73B10DAA51460598A4
:101BA000FFF7F0FA00287FF44EAC0F9BA6E54FF04C
:101BB000010C19461AA8C9E7DDE90232AA42ACBFF6
:101BC0009B185B190293A3E5012B00F0E080022B28
:101BD000009F7FF444AE08981AAE230904F00F0169
:101BE00043EA05732A091C461546435C06F8013D85
:101BF00054EA0503F1D16AE6440200003402000011
:101C0000009F002D08BF0A2CBFF44AAE30340123D8
:101C10008DF86740009701930DF167065BE6BCF114
:101C2000000F00F090800DAA51460598FFF7AAFA20
:101C300000287FF408ACDDE90E1C1CA801310DF171
:101C4000680B3DE50E920DF1680BFFF736BBE5170B
:101C500022462B46002A73F10003BFF6B7AC2D23B2
:101C600064428DF82F30069365EB4505012394E51A
:101C700000254FE4069B002B3DD002230CA9CDE9A3
:101C80001A139C460DF1700BFDE61CA8012162465B
:101C90000DF1680B0AE5BCF1000F43D00DAA5146C7
:101CA0000598FFF76FFA00287FF4CDABDDE90E2C25
:101CB0000DF1680B511CC5E44446FFF705BB1AAE95
:101CC00009E6411C02469B4603F10800F2E417F0C6
:101CD00040031CBF1346A4B2002558E57D0648BF4B
:101CE000A4B20025012352E5029A1046D117C3E998
:101CF0000001FFF7BDBA11461CA862460DF1680B42
:101D0000D4E46442CDE90342FFF7D5BB30460494E6
:101D1000009701F075FF9DF82F30019006934FF06A
:101D20000009D8E59DF82F202ABB069B002B7FF4E5
:101D3000A1AE62461CA801210DF1680BBAE4029A1B
:101D40001A60FFF795BA019B1B9301220F931A9615
:101D50000E921CA8CAE44D46062D28BF0625019503
:101D60000494254E57E4034650E61CA80121624620
:101D70000DF1680B9EE401220DF12F001A9094469C
:101D80001B9211461CA86EE48DF82F0051E5009FB0
:101D90003CE79DF82F30CDF804900693049400970B
:101DA000814698E58DF82F00CFE48DF82F00FFF7DE
:101DB000FBBB8DF82F00FFF7A1BB8DF82F000AE5C4
:101DC000864697E68DF82F00AAE401F1010CD9E6CA
:101DD00003460846C5E54FF0FF330293FFF738BBD3
:101DE000049D98F8013055F8042B0495A04642EA6A
:101DF000E279FFF776BA00BF7C02000010B4044C11
:101E000013460A460146206810BCFFF7FFB900BF21
:101E100008000020F0B50C46ADF26C4D8989666E65
:101E2000E589199621F00201666AADF80E50002589
:101E3000E769ADF80C10099606951AAE4FF4806567
:101E40006946009604960295059507970646FFF7A2
:101E5000DDF9051E07DB3046694600F0ABF90028C6
:101E600018BF4FF0FF35BDF80C305B0603D5A389D2
:101E700043F04003A38128460DF26C4DF0BD00BF36
:101E800038B5324B1B6805460C460BB19A6B12B342
:101E9000B4F90C2093B2180725D5206900282DD05D
:101EA00013F0010207D0636900225B42A361A260C4
:101EB00038B1002038BD990758BF6269A260002878
:101EC000F7D1B4F90C301A06F4D543F04003A381DE
:101ED0004FF0FF3038BD184600F072FAB4F90C200C
:101EE00093B21807D9D4D90628D5580712D4206937
:101EF00042F00803A3819BB20028D1D103F42072E1
:101F0000B2F5007FCCD02846214600F079FEA389A7
:101F10002069C5E7216B51B104F14003994204D017
:101F2000284600F043FBB4F90C2000232363002370
:101F30002069636022F024022060D9E742F0400269
:101F400009232B604FF0FF30A28138BD080000202C
:101F5000F0B4184C2568D5F8484114B365681F2DB6
:101F600024DC38B9AB1C0135656044F8231000202F
:101F7000F0BC704704EB85060127C6F8882007FAF5
:101F800005F2D4F88871022847EA0207C4F888717C
:101F9000C6F80831E6D1D4F88C311A43C4F88C2144
:101FA000E0E705F5A674C5F84841D7E74FF0FF30E4
:101FB000DEE700BF300200002DE9F04F244B83B074
:101FC000D3F800B001908A464FF00008DBF8486172
:101FD00096B17468651E0FD4013406EB84040127A2
:101FE000BAF1000F0BD0D4F80031534507D0013DB2
:101FF0006B1CA4F10404F3D103B0BDE8F08F736847
:102000002268013BAB420CBF7560C4F80080002A17
:10201000EDD0D6F88811D6F8049007FA05FC1CEA32
:10202000010F08D1904772684A45CFD1DBF848319B
:10203000B342DCD0CAE7D6F88C31D4F880101CEA61
:10204000030F02D101989047EDE708469047EAE771
:1020500030020000024B13B10248FEF7CBBF7047BD
:102060000000000021100000B1F90C309AB22DE9F7
:10207000F0410C461107804648D4626843F400637F
:10208000002AA3815DDDA56A002D57D000229BB2F6
:10209000D8F80060E169C8F8002013F4805254D1E8
:1020A00001234046A847431C66D0A389A56AE1697D
:1020B0005F0705D56268236B801A0BB1E36BC01A0A
:1020C000024600234046A847451C48D1D8F80020C6
:1020D000B4F90C30002A5CD01D2A01D0162A64D134
:1020E00022690021C4E9002123F40063A381216B4C
:1020F000C8F8006011B304F14003994202D0404691
:1021000000F054FA00202063BDE8F0812669AEB1EA
:102110002568266091070CBF63690023AD1BA3608F
:102120000AE02B463246676AE1694046B847002814
:10213000A5EB000506440ADD002DF2DC0020BDE819
:10214000F081E26B002A9EDCF8E7206DB0E7A389FE
:1021500043F04003A3814FF0FF30BDE8F081B4F9B4
:102160000C302269226023F4006300226260DA04EA
:10217000A381BCD52065BAE7D8F80030002B94D0F5
:102180001D2B0FD0162B0DD0A38943F04003A38144
:10219000D5E723F400632169A381DB04C4E90012BD
:1021A000A5D5E7E7C8F80060C8E743F04003A3817E
:1021B000C5E700BF10B5044682B008B1836B23B1F8
:1021C000B1F90C0048B902B010BD019100F0F8F867
:1021D0000199B1F90C000028F5D0204602B0BDE805
:1021E0001040FFF741BF00BF20B1054B0146186802
:1021F000FFF7E0BF034B0449186800F07BBC00BF49
:102200000800002030020000B521000000207047C7
:10221000014900F06FBC00BF993E00002DE9F84F66
:1022200045682C4BC3630024074600F53B7204232A
:102230000321C0E9B912C0F8E0422146EB6005F184
:102240005C006C66C5E90044AC60C5E90444AC615F
:102250000822FEF747FFDFF888B0BE68DFF884A0E9
:10226000DFF88490DFF884801B4BC5F82C80C5E92B
:10227000075BC5E909A92146F360082206F15C0065
:102280007466C6E90044B460C6E90444B461FEF76C
:1022900029FFFD68114BC6F82C80C6E9076BC6E91B
:1022A00009A92146EB606C66C5E90044AC60C5E94C
:1022B0000444AC6105F15C000822FEF713FF012322
:1022C000C5E9075BC5E909A9C5F82C80BB63BDE872
:1022D000F88F00BF11220000090001001200020067
:1022E0007D380000A5380000E53800000539000001
:1022F0000020704770B54A1E682505FB02F50E46A2
:1023000005F1740100F0C6FC044640B100210C3018
:10231000666005F168022160A060FEF7E3FE2046DA
:1023200070BD00BF1F4B70B51D68AB6B06464BB34D
:1023300005F53875D5E90134013B05D51EE0013BB3
:102340005A1C04F1680419D0B4F90C20002AF6D103
:102350000025154B6566C4E90055A560C4E9045520
:10236000A5612946E360082204F15C00FEF7BAFE8D
:10237000C4E90C55C4E91155204670BD2C682CB138
:102380002546D7E72846FFF749FFD1E70421304625
:10239000FFF7B0FF044628600028F1D10C2333601A
:1023A000EAE700BF300200000100FFFF024B0349D3
:1023B000186800F09FBB00BF30020000993E00008B
:1023C000836B03B1704729E7704700BF704700BFB8
:1023D000704700BF704700BF024B0349186800F008
:1023E00063BB00BF080000200D220000024B034920
:1023F000186800F059BB00BF08000020F12200005F
:102400002DE9F04782B080468946144600F0BCFBB7
:10241000012803D109F1FF33FE2B36D94A4604F1D6
:102420005C0301A9404601F0B9FC421C064632D0CB
:1024300030B39DF804C000250DF1040A09E02368BB
:102440005A1C226083F800C00135B54218D215F835
:102450000AC0A368013B002BA360F0DAA769BB4266
:1024600061462246404602DBBCF10A0FE7D101F08B
:1024700035FC431CE8D10646304602B0BDE8F08783
:102480004E46304602B0BDE8F0875FFA89FC06464A
:102490008DF804C0CFE7A389304643F04003A38101
:1024A00002B0BDE8F08700BFB2F90C3013F4005F52
:1024B0000AD110B4546E43F4005344F400545466EB
:1024C000938110BCFFF79CBFFFF79ABF0E4B70B50E
:1024D0001D6806460C460DB1AB6B8BB1B4F90C30E0
:1024E0009A0406D4626E43F4005342F40052A3816E
:1024F0006266224631462846BDE87040FFF780BF3D
:102500002846FFF75DFFE9E708000020F8B5244FF3
:102510000C46064600F0E6FFBB685D68C4F57E61C8
:102520000F3125F00305294421F47F6121F00F01CB
:10253000A1F58054B4F5805F07DB0021304601F03F
:102540008BF9BB682B44984204D0304600F0CCFF96
:102550000020F8BD6142304601F07EF901300DD017
:10256000104BBA6819682D1B45F001053046091B50
:102570005560196000F0B8FF0120F8BD0021304619
:1025800001F06AF9BA68831A0F2BDEDD064C0549A3
:10259000246843F00103001B53600860D5E700BFC7
:1025A000A4050020D4090020AC09002000295ED039
:1025B000F8B50F46064600F095FF57F804CC754D68
:1025C0002CF00103A7F10800C218A96854689142D1
:1025D00024F0030400F084801CF0010F546002EB2F
:1025E000040133D157F808EC4968A0EB0E0005F15F
:1025F000080C87686745734401F0010160D0D0F88A
:102600000CE0C7F80CE0CEF80870002900F08D80CF
:1026100043F0010141601360B3F5007F30D2DB0865
:10262000591C6C689A1001239340234305EBC102A7
:1026300055F831406B60083AC0E9024245F8310074
:10264000E0603046BDE8F84000F04EBF4968C90779
:102650000ED4234405F1080C9168614543F0010450
:102660006BD0D268CA6091604460C350D4E77047B1
:1026700043F00101B3F5007F47F8041C1360CED38B
:102680005A0A042A46D89A0902F13907FF0002F1D2
:102690003801EC19EA59083C944255D0516821F0B0
:1026A0000301994202D992689442F7D1D468C0E9F3
:1026B0000224A060D0603046BDE8F84000F014BFAE
:1026C000002962D1D2E90221234443F00104D16000
:1026D0008A604460C3503046BDE8F84000F004BF53
:1026E0001CF0010F234407D157F8082C801A13441B
:1026F000D0E90212CA609160274A126843F00101D2
:102700009A424160A8609CD8244B30461968FFF774
:10271000FDFE96E7142A0AD9542A1DD81A0B02F195
:102720006F07FF0002F16E01B3E7234494E702F163
:102730005C07FF0002F15B01ABE7C5E90400C0E9FB
:1027400002CC4460C3507CE76B688910012707FA0C
:1027500001F119436960AAE7B2F5AA7F06D8DA0B3E
:1027600002F17807FF0002F1770192E740F254513D
:102770008A4206D89A0C02F17D07FF0002F17C0123
:1027800087E74FF47E777E2183E743F001014160C4
:10279000136056E7A4050020B0090020D0090020EE
:1027A0009368002B00F002812DE9F04FB1F90C3055
:1027B0009BB20C46190783B08246904635D52269F4
:1027C0009AB313F00202D8F800603DD00027D4F885
:1027D00024B0D4F81CC0DFF8CC923D464D452B46C2
:1027E0003A4628BF4B4661465046D5B1D8470028E7
:1027F00040F3D280D8F808301B1A07442D1AC8F8C5
:102800000830002B00F0B780D4F81CC0D4F824B0F6
:102810004D452B463A4628BF4B4661465046002D53
:10282000E4D1D6E900750836D8E721465046FFF7CF
:1028300027FB002840F03081B4F90C30D8F8006054
:102840009BB213F00202C1D113F0010940F0B08035
:10285000A76820684D46002D54D09A0540F1BC80F1
:10286000AF42BB4600F2E78013F4906F2FD0D4E95B
:10287000041707EB4707A0EB010B07EBD777681CA2
:102880007F105844B8423A4684BF07463A465B0533
:1028900040F1E9801146504600F0FCF9002800F0B4
:1028A000F5805A462169019000F01AFDA289019B2A
:1028B00022F4906242F08002A281A7EB0B0203EBAC
:1028C0000B00676123612060A2602F46AB465A4629
:1028D000494600F09FFDA2682368D21B5B442F4647
:1028E000A26023600025D8F80830DB1BB944C8F883
:1028F0000830002B3FD0B4F90C30A76820689BB299
:10290000002DAAD1D6E900950836A4E70BF10803FB
:1029100053E902679B460833002FF9D03A460A2153
:10292000304600F08DFC002853D00130A0EB0609A2
:102930004B46D4E904122068BB4228BF3B4688427C
:1029400003D9A5681544AB4219DC9A427DDC1346D5
:10295000656AE16932465046A847051E1CDDB9EBA1
:1029600005096BD00120D8F808305B1B2E447F1B73
:10297000C8F8083013BB002003B0BDE8F08F314623
:102980002A4600F047FD23682B4423602146504629
:10299000FFF710FC0028E2D0B4F90C3043F04003FC
:1029A0004FF0FF30A38103B0BDE8F08F00207047E7
:1029B00033469146104617464E469B46002FA5D0FB
:1029C0000028B5D13A460A21304600F039FC0028EB
:1029D000ABD17B1C9946ACE72369834215D361696F
:1029E000A94212D82E4B676A9D4294BF2B466FF0C6
:1029F00000434A4693FBF1F3504601FB03F3E169C0
:102A0000B847071EC8DDED1B6DE7AF4228BF2F4654
:102A10003A46494600F0FEFCA3682268DB1B3A44B4
:102A2000A3602260002BEED121465046FFF7C2FB87
:102A30000028E8D0B0E72F46AB4648E7214650468D
:102A4000FFF7B8FB00288ED0A6E71A46314601935F
:102A500000F0E0FC019BA1682268C91A1A44A16039
:102A600022601D467BE7504600F040FD03460028EB
:102A70007FF423AF21695046FFF798FDB4F90C307D
:102A80000C2223F08003CAF8002087E70C23CAF841
:102A90000030B4F90C3081E74FF0FF306CE700BF35
:102AA000FEFFFF7F00FCFF7F2DE9F04110F5387736
:102AB0001BD088460026D7E90154013D0FD4A389D5
:102AC000012B05F1FF3506D9B4F90E30013320464C
:102AD00001D0C04706436B1C04F16804EFD13F6886
:102AE000002FE8D13046BDE8F0813E463046BDE8D3
:102AF000F08100BF2DE9F84310F538771FD08846E4
:102B000006464FF00009D7E90154013D11D4A389CD
:102B1000012B05F1FF3508D9B4F90E3001332146F8
:102B2000304602D0C04749EA00096B1C04F1680432
:102B3000EDD13F68002FE6D14846BDE8F883B9469D
:102B40004846BDE8F88300BF42B110B50B491046B6
:102B5000144600F0E9FE18B9094810BD084870474E
:102B60000749204600F0E0FE0028F5D02046054940
:102B700000F0DAFE0028EFD0002010BD880200002F
:102B80008402000064020000014B93F828017047A2
:102B900038040020024B0A4601461868FFF7D4BFEC
:102BA0000800002070B50C46B1F90E10002996B04F
:102BB00015461E4614DB6A4601F0BAF900280FDB01
:102BC000019A02F47042A2F50052B2FA82F252095E
:102BD0004FF480634FF4006032602B6016B070BD1C
:102BE000A289002312F08000336004D040221846EE
:102BF0002A6016B070BD4FF480632B6016B070BDB4
:102C00008A8992070B4606D501F1430201211A6019
:102C1000C3E90421704770B582B001AB6A460C4627
:102C20000646FFF7BFFF00990546304600F032F830
:102C3000B4F90C3070B11649F163019A0099206023
:102C400043F08003A381C4E904018AB92B43A38123
:102C500002B070BD9A05FBD423F0030304F14302D4
:102C600043F002030121A3812260C4E90421EFE7BC
:102C70003046B4F90E1001F06FF910B9B4F90C3008
:102C8000E4E7A38923F0030343F001031BB2DDE76C
:102C9000112200002DE9F04F01F10B05162D83B034
:102CA000064623D8102900F2B98000F01BFC10253D
:102CB00018230220CD4F3B44A3F108025C689442E4
:102CC00000F0B980636823F003032344D4E9025180
:102CD0005A68E96042F0010230468D605A6000F0A7
:102CE00003FC0834204603B0BDE8F08F35F007053B
:102CF00000F19480A94200F2918000F0F3FBB5F559
:102D0000FC7FC0F09D816B0A00F08F80042B00F2E5
:102D10007381AB0903F1390003F1380CC300B34FE1
:102D20003B44A3F108015C68A14206D10CE0002AF3
:102D300080F22B81E468A14206D0636823F003038C
:102D40005A1B0F2AF3DD60463C69DFF8A4C26445D4
:102D50007CD0636823F003035A1B0F2A00F37E81A3
:102D6000002AC7E904CC80F26F81B3F5007F80F0C0
:102D70001A81DB08591C7A6857F83180C4F808803A
:102D80004FF0010E9B100EFA03F307EBC10E134335
:102D9000AEF10802E2607B6047F83140C8F80C40B1
:102DA0008210012494409C4256D81C4206D120F047
:102DB000030064001C4200F10400FAD007EBC009D4
:102DC000CE468046DEF80C309E4507D120E1002A31
:102DD00080F22781DB689E4500F01A81596821F056
:102DE00003014A1B0F2AF2DDD3E9028E5C1945F07C
:102DF00001055D6042F00105C8F80CE03046CEF8F0
:102E00000880C7E90444C4E902CC65605A500093C5
:102E100000F06AFB009B03F1080402E00C2333601E
:102E20000024204603B0BDE8F08F4FF4007340202B
:102E30004FF03F0C73E7DC68A34208BF02307FF419
:102E400041AF3C69DFF8A8C1644582D17B6882103C
:102E5000012494409C42A8D9BC68636823F003080D
:102E6000A84503D3A8EB05030F2B7EDCDFF8849184
:102E7000D7F80824D9F80030013204EB080A2B44B3
:102E800000F0378103F580530F3323F47F6B2BF071
:102E90000F0B5946304600F0DFFC411C024600F0A3
:102EA000F780824500F2F280D9F804105944C9F83D
:102EB00004100B4600F05381D7F8081401311BBFF2
:102EC000A2EB0A0A5344C7F80824C9F8043012F0E8
:102ED000070300F01A81C3F108010A44C3F58051C9
:102EE00093440831A1EB0B01C1F30B0A5146304664
:102EF0000193009200F0B0FC421CDDE9002300F0D9
:102F00005381831A03EB0A0BD9F80410BA604BF013
:102F100001035144BC425360C9F8041000F02B81F6
:102F2000B8F10F0F40F229816368A8F10C0020F07E
:102F3000070003F0010304EB000C03434FF0050E00
:102F40000F286360CCE901EE00F235815368144626
:102F5000D9F82C208A42D9F8302038BFC9F82C1073
:102F60008A4238BFC9F8301094E0621943F0010377
:102F700045F0010565603046BA60536000F0B4FA70
:102F80000834204603B0BDE8F08F2344E1685A6856
:102F9000A56842F00102E96030468D605A6000F099
:102FA000A3FA08343DE75A0A042A69D9142A00F220
:102FB000BE8002F15C01C9005B3207EB010E79585B
:102FC000AEF1080E8E4500F097804A6822F00302A9
:102FD0009A4202D989688E45F7D1D1F80CE07B6816
:102FE000C4E9021ECEF80840CC60D9E6A405002052
:102FF000AC050020D0090020142B59D9542B00F225
:103000009E802B0B03F16F0003F16E0CC30086E66C
:1030100008F1010818F0030F0EF1080E7FF4D2AE8C
:1030200051E019441C464A68DB6854F8085F42F0D6
:1030300001024A603046EB609D6000F055FAF0E610
:10304000E80805F1080335E6234430465A6842F0A3
:1030500001025A60083400F047FAE2E6611945F0CF
:10306000010E42F00105C4F804E03046C7E904113E
:10307000C1E902CC4D60E25000F036FA0834D0E6E7
:103080009A0902F13901C900383296E7BC4260D092
:10309000BC68636823F0030BAB45ABEB050302D3BD
:1030A0000F2B3FF762AF304600F01EFA0024B8E65F
:1030B00003F15C0003F15B0CC30030E659F80839FA
:1030C0004B4540F0968010F0030F00F1FF30F5D132
:1030D0007B6823EA04037B6064009C423FF6BCAE3D
:1030E0001CB9B9E6640008F104081C42FAD0404655
:1030F00064E603F1100BCCE67B6892104FF00108F8
:1031000008FA02F213437B606AE702EB0B014942C3
:10311000C1F30B0A514630460193009200F09CFB2C
:10312000431CDDE900237FF4ECAE9A46ECE6542A1A
:1031300026D81A0B02F16F01C9006E323DE7B3F5D4
:10314000AA7F26D8EB0B03F1780003F1770CC300BC
:10315000E5E5D9F804305B44C9F80430ACE6CAF3BD
:103160000B0000287FF4A8AE08EB0B03BC6843F00B
:1031700001036360ECE61446EAE60123536092E73C
:10318000B2F5AA7F21D8DA0B02F17801C9007732B3
:1031900013E740F25452934221D8AB0C03F17D0067
:1031A00003F17C0CC300BAE5083B9B44ABEB020B7C
:1031B0004FF0000AA8E604F108013046FFF7F6F9DF
:1031C000BC68D9F804106368C2E640F254518A42E0
:1031D0000BD89A0C02F17D01C9007C32EDE64FF468
:1031E0007E737F204FF07E0C99E54FF47E717E2236
:1031F000E3E67B6870E700BF10B4034CD4F8E4400A
:10320000A44610BC604700BF3804002082B049B11A
:103210005AB16BB113780B601278101C18BF0120E3
:1032200002B0704701A9002AF3D1104602B07047DE
:103230006FF00100F4E700BF000000000000000094
:1032400001F0FF01102A2BDB10F0070F08D010F857
:10325000013B013A8B422DD010F0070F42B3F6D15B
:10326000F0B441EA012141EA014122F007047FF074
:1032700000070023F0E80256083C85EA010586EACB
:10328000010685FA47F5A3FA87F586FA47F6A5FA07
:1032900087F68EB9EED1F0BC01F0FF0102F0070213
:1032A00032B110F8013B013A83EA010313B1F8D1BE
:1032B0000020704701387047002D06BF354603389F
:1032C000073815F0010F07D1013015F4807F02BFD8
:1032D000013015F4C03F0130F0BC0138704700BF29
:1032E000844641EA000313F003036DD1403A41D311
:1032F00051F8043B40F8043B51F8043B40F8043BD0
:1033000051F8043B40F8043B51F8043B40F8043BBF
:1033100051F8043B40F8043B51F8043B40F8043BAF
:1033200051F8043B40F8043B51F8043B40F8043B9F
:1033300051F8043B40F8043B51F8043B40F8043B8F
:1033400051F8043B40F8043B51F8043B40F8043B7F
:1033500051F8043B40F8043B51F8043B40F8043B6F
:1033600051F8043B40F8043B51F8043B40F8043B5F
:10337000403ABDD2303211D351F8043B40F8043BFF
:1033800051F8043B40F8043B51F8043B40F8043B3F
:1033900051F8043B40F8043B103AEDD20C3205D30F
:1033A00051F8043B40F8043B043AF9D2043208D007
:1033B000D2071CBF11F8013B00F8013B01D30B8879
:1033C00003806046704700BF082A13D38B078DD057
:1033D00010F003038AD0C3F10403D21ADB071CBF29
:1033E00011F8013B00F8013B80D331F8023B20F893
:1033F000023B7BE7043AD9D3013A11F8013B00F8CC
:10340000013BF9D20B7803704B7843708B78837053
:10341000604670478842F0B40DD98B1883420AD9B0
:10342000841832B1224613F8014D02F8014D994239
:10343000F9D1F0BC70470F2A0ED80346541E002A5B
:10344000F7D001340C44013B11F8012B03F8012F94
:10345000A142F9D1F0BC704740EA01039B073BD180
:10346000A2F110073F0901F1200606EB071601F152
:10347000100300F1100453F8105C44F8105C53F88A
:103480000C5C44F80C5C53F8085C44F8085C53F896
:10349000045C44F8045C1033B34204F11004EAD134
:1034A0007B1C1B0112F00C0F194402F00F050344A2
:1034B00015D0043DAD0803EB850C1C1F0E4656F8D5
:1034C000047B44F8047F6445F9D10135AD002B44F9
:1034D000294402F00302B1E7541E0346B1E72A462D
:1034E000ACE700BF704700BF704700BF2DE9F84F41
:1034F0001746002900F0BB8007F10B0481460D46FA
:10350000FFF7F0FF162C5ED810242246A7425FD8A2
:1035100055F804EC2EF00306A5F10808964208EBD6
:10352000060A80F28180CB4BDAF804009968514595
:1035300000F0B58020F0010353445B68DB0700F125
:103540008A8020F003003318934280F212811EF02B
:10355000010F0FD155F8083CA8EB030BDBF8041062
:1035600021F0030108448319934280F216817318F5
:10357000934234DA39464846FFF78CFB0746E0B100
:1035800055F8043C23F001034344A0F108029342A0
:1035900000F0F780321F242A00F2FB80132A2968EA
:1035A00000F2C98003462A46196051685960926842
:1035B0009A6029464846FEF7F9FF4846FFF794FF10
:1035C0003846BDE8F88F24F00704002C22469DDA27
:1035D0000C23C9F8003000273846BDE8F88F5F4655
:1035E000DBF80C1057F8080F321F242AC1600BEBD0
:1035F000030A886000F2D980132A296840F2D38038
:10360000CBF808106968CBF80C101B2AA96800F2E7
:10361000E0800BF110020835116069685160A968FB
:1036200091601E46D8463D46D8F80430321B0F2A1A
:1036300003F0010320D83343C8F80430DAF804302B
:1036400043F00103CAF8043048462F46FFF74CFF09
:103650003846BDE8F88F1EF0010F8BD155F8083CB5
:10366000A8EB030BDBF8041021F003017FE7114600
:10367000BDE8F84FFFF70EBB08EB0401234342F00F
:103680000102C8F804304A60DAF8043043F001035C
:103690000831CAF804304846FEF788FFD4E720F026
:1036A0000300311804F1100C61454FDA1EF0010FD0
:1036B0007FF460AF55F8081CA8EB010BDBF8041091
:1036C00021F00301084400EB060AD4453FF74FAF51
:1036D0005F46DBF80C1057F8080F321F242AC16030
:1036E000886000F29980132A296840F29380CBF811
:1036F00008106968CBF80C101B2AA96800F29280A8
:103700000BF110020835116069685160A968916079
:103710000BEB0401AAEB040242F0010299604A603B
:10372000DBF8043003F001031C434846CBF80440A7
:10373000FFF7DAFE50E701606B6843601B2A3CD854
:1037400005F1080200F10803A9682DE708EB040061
:103750000A1B42F001029860426055F8043C03F0F5
:1037600001031C43484645F8044CFFF7BDFE2F46B5
:1037700032E7DAE902121E46CA6008EB030A9160DA
:1037800052E750F8043C23F003031E4408EB060AFA
:103790004AE72946FFF73EFE0BE7DAE902125F46E9
:1037A000CA6091601CE73A4636E7294638461E460D
:1037B000D846FFF72FFE3D4636E7AB688360EB68DF
:1037C000C360242A11D005F1100200F11003296909
:1037D000EAE6CBF81010E968CBF81410242A0ED0D2
:1037E00029690BF11802103516E72B6903616B6923
:1037F0004361A96905F1180200F11803D4E62A69AA
:10380000CBF818206A69CBF81C20A9690BF12002BB
:10381000183501E73A4676E729463846FFF7FAFDBC
:103820000C4B75E7CBF81010E968CBF81410242A7C
:1038300004D029690BF11802103564E72A69CBF826
:1038400018206A69CBF81C20A9690BF120021835F1
:1038500059E700BFA405002038B5074C00230546F2
:103860000846236000F058FD431C00D038BD236893
:10387000002BFBD02B6038BD080A002010B50C4689
:10388000B1F90E1000F090FB002803DB236D034418
:10389000236510BDA38923F48053A38110BD00BF0D
:1038A000002070472DE9F0411646B1F90C201F4663
:1038B000D3050C460546B1F90E1009D422F4805206
:1038C000A2813B4632462846BDE8F04100F0BCBA32
:1038D0000022022300F052FBB4F90C20B4F90E10C0
:1038E000ECE700BF10B50C46B1F90E1000F046FB36
:1038F000A389421C0EBF23F4805343F480532065F8
:10390000A38110BDB1F90E1000F0B4BA00000000A0
:1039100000000000000000000000000000000000A7
:10392000A2EB0300704700BF02780B78012A28BF82
:103930009A42F5D16DE9044540EA0104CDE90267F8
:103940006FF0000C4FEA447212B380EA010414F0E5
:10395000070F6AD100F0070420F0070004F0030508
:1039600021F007014FEAC505F0E8042314F0040F25
:10397000F1E804670CFA05F462EA040266EA040658
:103980000AD063EA0403624667EA0407664603E076
:10399000F0E80423F1E8046782FA4CF582EA0604B1
:1039A000A4FA8CF46CBB83FA4CF583EA0705A5FAFC
:1039B0008CF595B950E9022351E9026782FA4CF57A
:1039C00082EA0604A4FA8CF483FA4CF583EA07052C
:1039D000A5FA8CF52543DBD09CB92DBAB5FA85F450
:1039E00024F0070427FA04F1DDE9026723FA04F35F
:1039F00003F0FF0001F0FF01FDE80445A0EB01002A
:103A0000704724BAB4FA84F424F0070426FA04F1C7
:103A1000DDE9026722FA04F202F0FF0001F0FF0183
:103A2000FDE80445A0EB0100704714F0030F3CD102
:103A300010F0030428D150F8082B51F8083B82FA03
:103A40004CF582EA0305A5FA8CF55DB950F8042C13
:103A500051F8043C82FA4CF582EA0305A5FA8CF58C
:103A6000002DE8D02DBAB5FA85F424F0070423FA26
:103A700004F122FA04F202F0FF0001F0FF01FDE878
:103A80000445A0EB010070474FEAC40420F0030096
:103A900050F8082B21F0030151F8083B0CFA04F40C
:103AA00062EA040263EA0403C9E710F003041AD0CF
:103AB000A1EB040120F00300E40750F8042B06D02A
:103AC0000FD28B785FFAA2F4E41A06D12BB1CB782F
:103AD0005FFAB2F4E41A00D11BB920465DF8104B2E
:103AE000704701F1040150F8042BCC0721F00301C9
:103AF00051F8043B48D824D222F07F4482FA4CF596
:103B000094EA1325A5FA8CF50AD165B951F8043B5E
:103B100084EA0204B4EB036F0ED150F8042BEBE7F8
:103B20004FEA132355E035F07F454DD10878FDE885
:103B30000445C0F1000070474FEA126203F0FF0332
:103B400047E002EA1C4482FA4CF594EA1345A5FAD0
:103B50008CF50AD165B951F8043B84EA0204B4EB50
:103B6000034F0CD150F8042BEBE74FEA134330E03E
:103B700015EA1C4528D10B884FEA124229E04FEA8A
:103B8000124203EA1C4324E002F0FF0482FA4CF5DF
:103B900094EA1365A5FA8CF50AD165B951F8043B8E
:103BA00084EA0204B4EB032F09D150F8042BEBE7AD
:103BB0004FEA13630DE015F0FF0F05D10B684FEAD4
:103BC000122223F07F4304E04FF00000FDE804459B
:103BD000704712BA1BBA82FA4CF482EA0304A4FAC0
:103BE0008CF5B5FA85F402FA04F203FA04F34FEA0D
:103BF0001260FDE80445A0EB136070470000000070
:103C000090F800F06DE9024520F007016FF0000C1C
:103C100010F0070491F820F040F049804FF00004C4
:103C20006FF00700D1E9002391F840F000F108009F
:103C300082FA4CF2A4FA8CF283FA4CF3A2FA8CF3D7
:103C40004BBBD1E9022382FA4CF200F10800A4FA3E
:103C50008CF283FA4CF3A2FA8CF3E3B9D1E9042392
:103C600082FA4CF200F10800A4FA8CF283FA4CF3C9
:103C7000A2FA8CF37BB9D1E9062301F1200182FA83
:103C80004CF200F10800A4FA8CF283FA4CF3A2FA89
:103C90008CF3002BC6D0002A04BF04301A4612BA97
:103CA000B2FA82F2FDE8024500EBD2007047D1E99A
:103CB000002304F00305C4F100004FEAC50514F029
:103CC000040F91F840F00CFA05F562EA05021CBFFA
:103CD00063EA050362464FF00004A9E7F8B50D4614
:103CE0001446064610B1836B002B43D0B4F90C2068
:103CF000A369A36091B208071BD52369CBB1EDB2CC
:103D000089042F4622D522686169D31A994229DD98
:103D10000133A168501C0139A160206015706269EF
:103D20009A422AD0A389DB0701D50A2D25D038462F
:103D3000F8BD21463046FEF7A3F820BBB4F90C20AD
:103D4000236991B2EDB289042F46DCD4616E42F44E
:103D5000005221F40051A281226861666169D31A80
:103D60009942D5DC21463046FEF724FA58B922683C
:103D70000123CEE7FEF724FBB8E721463046FEF7E5
:103D800019FA0028D3D04FF0FF37D0E7024B0A468C
:103D900001461868FFF7A2BF08000020F0B50B4CE1
:103DA00085B00646D4F8E0401F4621B1A047431C29
:103DB00006D005B0F0BD0A4601A9A047431CF8D1C2
:103DC00000228A233A60336005B0F0BD3804002039
:103DD00070B50F4B0F4CD3F8E060246884B01546E3
:103DE00040B10A462B4601462046B047431C08D046
:103DF00004B070BD02462B4601A92046B047431CC3
:103E0000F6D100228A232A60236004B070BD00BF6F
:103E1000380400200800002010B4034CD4F8E0401F
:103E2000A44610BC604700BF3804002049B1FF2AF7
:103E300002D80A70012070478A2303604FF0FF30D8
:103E400070470846704700BF70B50D46084C1146D4
:103E500006461A46284600232360FCF71DFB431C38
:103E600000D070BD2368002BFBD0336070BD00BF55
:103E7000080A002038B5074C002305460846236091
:103E800000F022FA431C00D038BD2368002BFBD081
:103E90002B6038BD080A002070B539B105460C46C4
:103EA00008B1836B83B3B4F90C3013B900263046E4
:103EB00070BD21462846FEF7D7F8E36A064633B1BF
:103EC000E169284698470028B8BF4FF0FF36A3891C
:103ED0001B0620D4216B41B104F14003994202D06A
:103EE0002846FEF763FB00232363616C21B128465B
:103EF000FEF75CFB00236364FEF766FA0023A381F0
:103F0000FEF764FA304670BDFEF75AFAB4F90C3089
:103F1000002BCBD0CDE721692846FEF747FBD9E738
:103F2000024B01461868FFF7B7BF00BF080000202A
:103F300038B50B46074C054611461846002323604A
:103F400000F0CAF9431C00D038BD2368002BFBD019
:103F50002B6038BD080A002038B5074C0023054601
:103F60000846236000F0C0F9431C00D038BD236828
:103F7000002BFBD02B6038BD080A002070B50D4621
:103F8000084C114606461A4628460023236000F0D6
:103F9000B3F9431C00D070BD2368002BFBD0336005
:103FA00070BD00BF080A002070B50D46084C1146D0
:103FB00006461A4628460023236000F0A5F9431C54
:103FC00000D070BD2368002BFBD0336070BD00BFF4
:103FD000080A002053B94AB9002908BF00281CBFAD
:103FE0004FF0FF314FF0FF3000F06CB9ADF1080C2D
:103FF0006DE904CE00F006F8DDF804E0DDE9022307
:1040000004B070472DE9F047089E0D4604468E46E1
:10401000002B40F082808A42174646D9B2FA82F2DB
:104020004AB1C2F1200105FA02F320FA01F19740EA
:1040300041EA030E94404FEA1748230CBEFBF8FCFC
:10404000B9B208FB1CEE43EA0E430CFB01F09842A8
:104050000AD9FB180CF1FF3580F01681984240F226
:104060001381ACF1020C3B441B1AA4B2B3FBF8F071
:1040700008FB103344EA034400FB01F1A14209D9D3
:104080003C1900F1FF3380F00181A14240F2FE8033
:1040900002383C44641A40EA0C4000211EB1D4406E
:1040A0000023C6E90043BDE8F08702B9FFDEB2FA9B
:1040B00082F2002A4FD1CB1B4FEA174E1FFA87F826
:1040C0000121B3FBFEFC250C0EFB1C3345EA034526
:1040D00008FB0CF3AB4207D97D190CF1FF3002D27B
:1040E000AB4200F2E7808446ED1AA3B2B5FBFEF0C6
:1040F0000EFB105543EA054408FB00F8A04507D91C
:104100003C1900F1FF3302D2A04500F2D7801846D7
:10411000A4EB080440EA0C40C0E78B4208D9002E0B
:1041200000F0AF800021C6E900050846BDE8F08731
:10413000B3FA83F100294BD1AB4202D3824200F2A1
:10414000B780841A65EB030301209E46002EAAD097
:10415000C6E9004EA7E7C2F1200C01FA02F397402E
:1041600020FA0CF04FEA174E21FA0CFC1843BCFB66
:10417000FEF1050C0EFB11CC1FFA87F845EA0C4541
:1041800001FB08F3AB4204FA02F409D97D1901F1ED
:10419000FF3C80F08B80AB4240F2888002393D4486
:1041A000EB1A85B2B3FBFEF00EFB103345EA034574
:1041B00000FB08F3AB4207D97D1900F1FF3C71D237
:1041C000AB426FD902383D44EB1A40EA014178E72F
:1041D000C1F1200C8B4022FA0CF71F4320FA0CF49B
:1041E00005FA01F34FEA174E25FA0CF51C43230C90
:1041F000B5FBFEF91FFA87F80EFB195543EA054592
:1042000009FB08FAAA4502FA01F200FA01F308D9FB
:104210007D1909F1FF3047D2AA4545D9A9F1020914
:104220003D44A5EB0A05A4B2B5FBFEF00EFB10550C
:1042300044EA054400FB08F8A04507D93C1900F101
:10424000FF352DD2A0452BD902383C4440EA094025
:10425000A4EB0804A0FB02894C45C6464D4619D381
:1042600016D05EB1B3EB0E0264EB050404FA0CFC4D
:10427000CA404CEA0202CC40C6E900240021BDE855
:10428000F087314630460EE7AC46EDE6184601E7CA
:104290004345E6D2B8EB020E69EB07050138E0E7CB
:1042A0002846D3E760468FE78146BAE7614677E75D
:1042B00008464BE7ACF1020C3D4415E702383C449C
:1042C00026E700BF704700BF024B58221A604FF02C
:1042D000FF307047080A0020024B58221A604FF046
:1042E000FF307047080A0020024B58221A60002055
:1042F000704700BF080A0020024B58221A604FF096
:10430000FF307047080A0020024B58221A604FF015
:10431000FF307047080A0020044A05491368002B43
:1043200008BF0B461844106018467047040A002066
:104330000C0A0020FEE700BFF8B500BFF8BC08BCBF
:104340009E4670475520000009040000F8B500BFE4
:10435000F8BC08BC9E467047E10300000000000066
:10436000A8430000000000206D0200005C4D00002A
:10437000B4090020000000005C4D0000B4090020DA
:10438000000000005C4D0000B409002000000000A7
:10439000B4090020160000000C0A002000000000F4
:0843A0000C0A002000000000DF
:1043A8000090D00300000000100000200000000072
:1043B80000000000FC02002064030020CC03002061
:1043C80000000000000000000000000000000000E5
:1043D80000000000000000000000000000000000D5
:1043E80000000000000000000000000000000000C5
:1043F80000000000000000000000000000000000B5
:1044080000000000000000000000000000000000A4
:104418000000000000000000000000000000000094
:104428000000000000000000000000000000000084
:104438000000000000000000000000000000000074
:104448000000000000000000000000000000000064
:104458000000000000000000010000000000000053
:104468000E33CDAB34126DE6ECDE05000B00000018
:104478000000000000000000000000000000000034
:104488000000000000000000000000000000000024
:104498000000000000000000000000000000000014
:1044A8000000000000000000000000000000000004
:1047D800000000000000000043000000000000008E
:1047E80000000000000000000000000000000000C1
:1047F800000000000000000043000000000000006E
:1048080000000000000000000000000000000000A0
:10481800000000000000000043000000000000004D
:104828000000000000000000000000000000000080
:10483800000000000000000043000000000000002D
:104848000000000000000000000000000000000060
:10485800000000000000000043000000000000000D
:104868000000000000000000000000000000000040
:1048780000000000000000004300000000000000ED
:104888000000000000000000000000000000000020
:1048980000000000000000004300000000000000CD
:1048A8000000000000000000000000000000000000
:1048B80000000000000000002D3E00000D32000046
:1048C8000000000094020000900200006402000052
:1048D8006402000064020000640200006402000038
:1048E8006402000064020000640200006402000028
:1048F800FFFFFFFFFFFFFFFFFFFFFFFFFFFF0000BE
:104908000100415343494900000000000000000035
:10491800000000000000000000000000000000008F
:104928000000415343494900000000000000000016
:10493800000000000000000000000000000000006F
:10494800000000000000000000000000A405002096
:10495800A4050020AC050020AC050020B40500200B
:10496800B4050020BC050020BC050020C4050020BB
:10497800C4050020CC050020CC050020D40500206B
:10498800D4050020DC050020DC050020E40500201B
:10499800E4050020EC050020EC050020F4050020CB
:1049A800F4050020FC050020FC050020040600207A
:1049B800040600200C0600200C0600201406002027
:1049C800140600201C0600201C06002024060020D7
:1049D800240600202C0600202C0600203406002087
:1049E800340600203C0600203C0600204406002037
:1049F800440600204C0600204C06002054060020E7
:104A0800540600205C0600205C0600206406002096
:104A1800640600206C0600206C0600207406002046
:104A2800740600207C0600207C06002084060020F6
:104A3800840600208C0600208C06002094060020A6
:104A4800940600209C0600209C060020A406002056
:104A5800A4060020AC060020AC060020B406002006
:104A6800B4060020BC060020BC060020C4060020B6
:104A7800C4060020CC060020CC060020D406002066
:104A8800D4060020DC060020DC060020E406002016
:104A9800E4060020EC060020EC060020F4060020C6
:104AA800F4060020FC060020FC0600200407002075
:104AB800040700200C0700200C0700201407002022
:104AC800140700201C0700201C07002024070020D2
:104AD800240700202C0700202C0700203407002082
:104AE800340700203C0700203C0700204407002032
:104AF800440700204C0700204C07002054070020E2
:104B0800540700205C0700205C0700206407002091
:104B1800640700206C0700206C0700207407002041
:104B2800740700207C0700207C07002084070020F1
:104B3800840700208C0700208C07002094070020A1
:104B4800940700209C0700209C070020A407002051
:104B5800A4070020AC070020AC070020B407002001
:104B6800B4070020BC070020BC070020C4070020B1
:104B7800C4070020CC070020CC070020D407002061
:104B8800D4070020DC070020DC070020E407002011
:104B9800E4070020EC070020EC070020F4070020C1
:104BA800F4070020FC070020FC0700200408002070
:104BB800040800200C0800200C080020140800201D
:104BC800140800201C0800201C08002024080020CD
:104BD800240800202C0800202C080020340800207D
:104BE800340800203C0800203C080020440800202D
:104BF800440800204C0800204C08002054080020DD
:104C0800540800205C0800205C080020640800208C
:104C1800640800206C0800206C080020740800203C
:104C2800740800207C0800207C08002084080020EC
:104C3800840800208C0800208C080020940800209C
:104C4800940800209C0800209C080020A40800204C
:104C5800A4080020AC080020AC080020B4080020FC
:104C6800B4080020BC080020BC080020C4080020AC
:104C7800C4080020CC080020CC080020D40800205C
:104C8800D4080020DC080020DC080020E40800200C
:104C9800E4080020EC080020EC080020F4080020BC
:104CA800F4080020FC080020FC080020040900206B
:104CB800040900200C0900200C0900201409002018
:104CC800140900201C0900201C09002024090020C8
:104CD800240900202C0900202C0900203409002078
:104CE800340900203C0900203C0900204409002028
:104CF800440900204C0900204C09002054090020D8
:104D0800540900205C0900205C0900206409002087
:104D1800640900206C0900206C0900207409002037
:104D2800740900207C0900207C09002084090020E7
:104D3800840900208C0900208C0900209409002097
:104D4800940900209C0900209C090020FFFFFFFF18
:044D58000000020055
:0400000300000F7179
:00000001FF
