:1000000000000120610C0000D10C0000D30C0000A6
:10001000D50C0000D70C0000D90C00000000000037
:10002000000000000000000000000000DB0C0000E9
:10003000DD0C000000000000DF0C0000E10C0000FF
:10004000E30C0000E30C0000E30C0000E30C0000F4
:10005000E30C0000E30C0000E30C0000E30C0000E4
:10006000E30C0000E30C0000E30C0000E30C0000D4
:10007000E30C0000E30C0000E30C0000E30C0000C4
:10008000E30C0000E30C0000E30C0000E30C0000B4
:10009000E30C0000E30C0000E30C0000E30C0000A4
:1000A000E30C0000E30C0000E30C0000E30C000094
:1000B000E30C0000E30C0000000000000000000062
:1000C000E30C0000E30C0000E30C0000E30C000074
:1000D000E30C0000E30C0000E30C00000000000053
:1000E0000000000000000000000000000000000010
:1000F0000000000000000000000000000000000000
:1001000000000000000000000000000000000000EF
:1001100000000000000000000000000000000000DF
:1001200000000000000000000000000000000000CF
:1001300000000000000000000000000000000000BF
:1001400000000000000000000000000000000000AF
:10015000000000000000000000000000000000009F
:10016000000000000000000000000000000000008F
:10017000000000000000000000000000000000007F
:10018000000000000000000000000000000000006F
:10019000000000000000000000000000000000005F
:1001A000000000000000000000000000000000004F
:1001B000000000000000000000000000000000003F
:1001C000000000000000000000000000000000002F
:1001D000000000000000000000000000000000001F
:1001E000000000000000000000000000000000000F
:1001F00000000000000000000000000000000000FF
:0402000010000020CA
:08020400900000000100000061
:10020C000348044B834202D0034B03B11847704799
:10021C00380400203804002000000000054806497E
:10022C000B1AD90F01EBA301491002D0034B03B1F8
:10023C0018477047380400203804002000000000E4
:10024C0010B5064C237843B9FFF7DAFF044B13B112
:10025C000448AFF300800123237010BD3804002044
:10026C00000000006C0F000008B5044B1BB10449E2
:10027C000448AFF30080BDE80840CFE70000000061
:10028C003C0400206C0F0000A3F5803A704700BFBF
:10029C00154B002B08BF114B9D46FFF7F5FF0021B6
:1002AC008B460F461148124A121A00F069FD0C4B8E
:1002BC00002B00D098470B4B002B00D09847002008
:1002CC00002104000D000B4800F006FD00F034FD89
:1002DC002000290000F010F800F004FD00000800D8
:1002EC000000000000000000000001203804002085
:1002FC0054040020110D000080B483B000AF112312
:10030C007B6010E001227B689A404FF0A043C3F859
:10031C00182501227B689A404FF0A043C3F80C25A6
:10032C007B6801337B607B68142BEBDD4FF0A043C3
:10033C000C22C3F834274FF0A0430C22C3F8382703
:10034C0000233B604FF0A043D3F8103503F4005367
:10035C00002B17D14FF0A0434FF40032C3F80C25FB
:10036C004FF0A0434FF48022C3F80C254FF0A0436C
:10037C004FF40022C3F80C254FF0A0434FF4801229
:10038C00C3F80C254FF0A043D3F8103503F4804389
:10039C00002B17D14FF0A0434FF40032C3F80825BF
:1003AC004FF0A0434FF48022C3F808254FF0A04330
:1003BC004FF40022C3F808254FF0A0434FF48012ED
:1003CC00C3F8082542F210733B603B68013B3B606D
:1003DC003B68002BF9D1B5E780B483B000AF1E4B5E
:1003EC001B68B3F1FF3F0AD11C4B1B68DBB27B606F
:1003FC001B4B1B681B0903F00F033B6005E0164BFE
:10040C001B687B60174B1B683B607B68062B1DD100
:10041C003B68033B042B17D801A252F823F000BF12
:10042C004104000045040000490400004D04000094
:10043C005104000001230AE0012308E0012306E037
:10044C00012304E0012302E0012300E0002318460D
:10045C000C37BD4680BC704730010010E00F00F037
:10046C00E80F00F03401001080B483B000AF184BDB
:10047C001B68DBB27B60174B1B681B0903F00F0377
:10048C003B607B68062B1DD13B68033B042B17D8C4
:10049C0001A252F823F000BFB9040000BD04000013
:1004AC00C1040000C5040000C904000001230AE0D7
:1004BC00002308E0002306E0002304E0002302E010
:1004CC00002300E0002318460C37BD4680BC704763
:1004DC00E00F00F0E80F00F080B483B000AF1E4BCB
:1004EC001B68B3F1FF3F0AD11C4B1B68DBB27B606E
:1004FC001B4B1B681B0903F00F033B6005E0164BFD
:10050C001B687B60174B1B683B607B68062B1DD1FF
:10051C003B68033B042B17D801A252F823F000BF11
:10052C004105000045050000490500004D0500008F
:10053C005105000001230AE0012308E0012306E035
:10054C00012304E0012302E0012300E0002318460C
:10055C000C37BD4680BC704730010010E00F00F036
:10056C00E80F00F03401001080B483B000AF184BDA
:10057C001B68DBB27B60174B1B681B0903F00F0376
:10058C003B607B68062B1DD13B68033B042B17D8C3
:10059C0001A252F823F000BFB9050000BD05000010
:1005AC00C1050000C5050000C905000001230AE0D3
:1005BC00002308E0002306E0002304E0002302E00F
:1005CC00002300E0002318460C37BD4680BC704762
:1005DC00E00F00F0E80F00F080B483B000AF1E4BCA
:1005EC001B68B3F1FF3F0AD11C4B1B68DBB27B606D
:1005FC001B4B1B681B0903F00F033B6005E0164BFC
:10060C001B687B60174B1B683B607B68062B1DD1FE
:10061C003B68033B042B17D801A252F823F000BF10
:10062C004106000045060000490600004D0600008A
:10063C005106000001230AE0012308E0012306E033
:10064C00012304E0012302E0012300E0002318460B
:10065C000C37BD4680BC704730010010E00F00F035
:10066C00E80F00F03401001080B483B000AF184BD9
:10067C001B68DBB27B60174B1B681B0903F00F0375
:10068C003B607B68062B1DD13B68033B042B17D8C2
:10069C0001A252F823F000BFB9060000BD0600000D
:1006AC00C1060000C5060000C906000001230AE0CF
:1006BC00002308E0002306E0002304E0002302E00E
:1006CC00002300E0002318460C37BD4680BC704761
:1006DC00E00F00F0E80F00F080B483B000AF184BCF
:1006EC001B68DBB27B60174B1B681B0903F00F0305
:1006FC003B607B68062B1DD13B68033B042B17D852
:10070C0001A252F823F000BF290700002D070000BA
:10071C0031070000350700003907000001230AE00B
:10072C00002308E0002306E0002304E0002302E09D
:10073C00002300E0002318460C37BD4680BC7047F0
:10074C00E00F00F0E80F00F080B483B000AF1E4B58
:10075C001B68B3F1FF3F0AD11C4B1B68DBB27B60FB
:10076C001B4B1B681B0903F00F033B6005E0164B8A
:10077C001B687B60174B1B683B607B68062B1DD18D
:10078C003B68033B042B17D801A252F823F000BF9F
:10079C00B1070000B5070000B9070000BD07000055
:1007AC00C107000000230AE0002308E0012306E053
:1007BC00012304E0012302E0012300E0002318469A
:1007CC000C37BD4680BC704730010010E00F00F0C4
:1007DC00E80F00F03401001080B483B000AF1E4B62
:1007EC001B68B3F1FF3F0AD11C4B1B68DBB27B606B
:1007FC001B4B1B681B0903F00F033B6005E0164BFA
:10080C001B687B60174B1B683B607B68062B1DD1FC
:10081C003B68033B042B17D801A252F823F000BF0E
:10082C004108000045080000490800004D08000080
:10083C005108000001230AE0012308E0012306E02F
:10084C00012304E0012302E0012300E00023184609
:10085C000C37BD4680BC704730010010E00F00F033
:10086C00E80F00F03401001080B483B000AF1E4BD1
:10087C001B68B3F1FF3F0AD11C4B1B68DBB27B60DA
:10088C001B4B1B681B0903F00F033B6005E0164B69
:10089C001B687B60174B1B683B607B68062B1DD16C
:1008AC003B68033B042B17D801A252F823F000BF7E
:1008BC00D1080000D5080000D9080000DD080000B0
:1008CC00E108000001230AE0012308E0012306E00F
:1008DC00012304E0012302E0012300E00023184679
:1008EC000C37BD4680BC704730010010E00F00F0A3
:1008FC00E80F00F03401001080B483B000AF164B49
:10090C001B687B60154B1B683B607B68062B1DD1FD
:10091C003B68033B042B17D801A252F823F000BF0D
:10092C004109000045090000490900004D0900007B
:10093C005109000000230AE0002308E0002306E030
:10094C00012304E0012302E0012300E00023184608
:10095C000C37BD4680BC70473001001034010010CC
:10096C0080B483B000AF164B1B687B60154B1B68C3
:10097C003B607B68062B1DD13B68033B042B17D8CF
:10098C0001A252F823F000BFA9090000AD09000034
:10099C00B1090000B5090000B909000000230AE004
:1009AC00002308E0002306E0002304E0012302E01A
:1009BC00012300E0002318460C37BD4680BC70476D
:1009CC00300100103401001080B500AFFFF7C8FFF4
:1009DC000346002B07D04FF010234FF08042D3F882
:1009EC000832C2F8583500BF80BD000080B400AF9B
:1009FC00034B044A1A6000BFBD4680BC704700BF61
:100A0C00000000200090D00380B500AFFFF7E4FC9D
:100A1C000346002B06D07F4B1B681B0A7E4A03F053
:100A2C001F031360FFF720FD0346002B02D07B4B06
:100A3C007B4A1A60FFF750FD0346002B06D0794B1A
:100A4C001B685B0B784A03F007031360FFF78CFD00
:100A5C000346002B05D0754BDB68744A23F080737A
:100A6C00D360FFF7B9FD0346002B0ED04FF0804347
:100A7C000022C3F80C214FF080430022C3F8102150
:100A8C004FF080430022C3F83825FFF7EDFD0346F5
:100A9C00002B02D0664B03221A60FFF71DFE0346A3
:100AAC00002B0BD0634B05221A60634B01221A609A
:100ABC00624B00221A60624B3F221A60FFF744FE21
:100ACC000346002B76D04FF080535E4AD3F80434A3
:100ADC00C2F820354FF080535A4AD3F80834C2F884
:100AEC0024354FF08053574AD3F80C34C2F82835CC
:100AFC004FF08053534AD3F81034C2F82C354FF0D2
:100B0C008053504AD3F81434C2F830354FF0805328
:100B1C004C4AD3F81834C2F834354FF08053494A54
:100B2C00D3F81C34C2F840354FF08053454AD3F803
:100B3C002034C2F844354FF08053424AD3F8243461
:100B4C00C2F848354FF080533E4AD3F82834C2F8E7
:100B5C004C354FF080533B4AD3F82C34C2F8503507
:100B6C004FF08053374AD3F83034C2F854354FF035
:100B7C008053344AD3F83434C2F860354FF0805384
:100B8C00304AD3F83834C2F864354FF080532D4ACC
:100B9C00D3F83C34C2F868354FF08053294AD3F867
:100BAC004034C2F86C354FF08053264AD3F84434A5
:100BBC00C2F87035FFF710FE0346002B05D0224B10
:100BCC001B68224A03F04F031360FFF74DFE0346E8
:100BDC00002B0DD04FF08043D3F8003403F0010309
:100BEC00002B05D04FF080436FF00102C3F80024B6
:100BFC00FFF782FE0346002B05D0154B1B68144AE9
:100C0C0043F480631360FFF7DFFEFFF7EFFE00BFD6
:100C1C0080BD00BF240300104035014074C0074064
:100C2C000DF0ADBA440200103C050040F0ED00E0C0
:100C3C00A005004010560040885600401856004051
:100C4C001456004000C0004058020010E40E004052
:100C5C003C1700400F49104A104B00F010F8104997
:100C6C00104A114B00F00BF81049114A114B00F0CF
:100C7C0006F81149114A124B00F001F806E0521A1D
:100C8C0003DD043A98588850FBDC7047FFF7BCFE34
:100C9C00FFF7FEFA0000002038040020B80F000017
:100CAC003804002038040020F01300003804002021
:100CBC0038040020F0130000380400203804002011
:100CCC00F0130000FEE7FEE7FEE7FEE7FEE7FEE7B7
:100CDC00FEE7FEE7FEE7FEE7002301461A4618464C
:100CEC0000F09EB808B50021044600F0CDF8044B86
:100CFC001868C36B03B19847204600F01DF900BF7C
:100D0C000002000038B50A4C0A4D641BA4100AD02E
:100D1C0004F18043013B05EB8305013C55F8043994
:100D2C009847002CF9D1BDE8384000F011B900BF4C
:100D3C006C0F0000680F000070B50D4E0D4D761B4A
:100D4C00B61006D00024013455F8043B9847A6424F
:100D5C00F9D1094E094D761B00F0F0F8B61006D00B
:100D6C000024013455F8043B9847A642F9D170BDD4
:100D7C00540F0000540F00005C0F0000540F0000D3
:100D8C00F0B4860746D0541E002A3CD0CAB20346A3
:100D9C0002E014F1FF3436D303F8012B9D07F8D190
:100DAC00032C29D9CDB245EA05250F2C45EA05457A
:100DBC0033D9A4F11006360903F1200707EB061707
:100DCC0003F1100242E9045542E902551032BA42CD
:100DDC00F8D1721C14F00C0F03EB021204F00F0686
:100DEC0013D0331F23F003030433134442F8045B82
:100DFC009342FBD106F003042CB1C9B21C4403F896
:100E0C00011B9C42FBD1F0BC704734461346002CAE
:100E1C00F3D1F8E714460346C2E71A462646E0E744
:100E2C00F0B4184C2568D5F8484114B365681F2DEB
:100E3C0024DC38B9AB1C0135656044F82310002064
:100E4C00F0BC704704EB85060127C6F8882007FA2A
:100E5C0005F2D4F88871022847EA0207C4F88871B1
:100E6C00C6F80831E6D1D4F88C311A43C4F88C2179
:100E7C00E0E705F5A674C5F84841D7E74FF0FF3019
:100E8C00DEE700BF000200002DE9F04F244B83B0D9
:100E9C00D3F800B001908A464FF00008DBF84861A7
:100EAC0096B17468651E0FD4013406EB84040127D7
:100EBC00BAF1000F0BD0D4F80031534507D0013DE7
:100ECC006B1CA4F10404F3D103B0BDE8F08F73687C
:100EDC002268013BAB420CBF7560C4F80080002A4D
:100EEC00EDD0D6F88811D6F8049007FA05FC1CEA68
:100EFC00010F08D1904772684A45CFD1DBF84831D1
:100F0C00B342DCD0CAE7D6F88C31D4F880101CEA96
:100F1C00030F02D101989047EDE708469047EAE7A6
:100F2C0000020000024B13B10248FFF7D5BE704718
:100F3C0000000000110D0000FEE700BFF8B500BF77
:100F4C00F8BC08BC9E467047310F000075020000CB
:100F5C00F8B500BFF8BC08BC9E4670474D020000B7
:040F6C000000000081
:100F7000B80F0000000000200E010000F013000078
:100F80003804002000000000F013000038040020A6
:100F900000000000F01300003804002000000000F2
:100FA0003804002007000000540400200000000066
:080FB0005404002000000000C1
:100FB8000090D00300000000100000200000000096
:100FC80000000000FC02002064030020CC03002085
:100FD8000000000000000000000000000000000009
:100FE80000000000000000000000000000000000F9
:100FF80000000000000000000000000000000000E9
:1010080000000000000000000000000000000000D8
:1010180000000000000000000000000000000000C8
:1010280000000000000000000000000000000000B8
:1010380000000000000000000000000000000000A8
:101048000000000000000000000000000000000098
:101058000000000000000000000000000000000088
:101068000000000000000000010000000000000077
:101078000E33CDAB34126DE6ECDE05000B0000003C
:101088000000000000000000000000000000000058
:101098000000000000000000000000000000000048
:1010A8000000000000000000000000000000000038
:1010B8000000000000000000000000000000000028
:0400000300000C618C
:00000001FF
